{
  "_format": "hh-sol-artifact-1",
  "contractName": "VendingMachine",
  "sourceName": "contracts/VendingMachine.sol",
  "abi": [
    {
      "inputs": [
        {
          "internalType": "address",
          "name": "userAddress",
          "type": "address"
        }
      ],
      "name": "getCupcakeBalanceFor",
      "outputs": [
        {
          "internalType": "uint256",
          "name": "",
          "type": "uint256"
        }
      ],
      "stateMutability": "view",
      "type": "function"
    },
    {
      "inputs": [
        {
          "internalType": "address",
          "name": "userAddress",
          "type": "address"
        }
      ],
      "name": "giveCupcakeTo",
      "outputs": [
        {
          "internalType": "bool",
          "name": "",
          "type": "bool"
        }
      ],
      "stateMutability": "nonpayable",
      "type": "function"
    }
  ],
  "bytecode": "0x608060405234801561001057600080fd5b50610adf806100206000396000f3fe608060405234801561001057600080fd5b50600436106100365760003560e01c80636c5283491461003b578063987133171461006b575b600080fd5b6100556004803603810190610050919061074a565b61009b565b6040516100629190610792565b60405180910390f35b6100856004803603810190610080919061074a565b6104a2565b60405161009291906107c6565b60405180910390f35b6000806000808473ffffffffffffffffffffffffffffffffffffffff1673ffffffffffffffffffffffffffffffffffffffff1681526020019081526020016000205403610149576000600160008473ffffffffffffffffffffffffffffffffffffffff1673ffffffffffffffffffffffffffffffffffffffff16815260200190815260200160002081905550610148604051806060016040528060228152602001610a65602291396104ea565b5b6101886040518060400160405280601381526020017f626c6f636b2e74696d657374616d703a20256f0000000000000000000000000081525042610583565b60006005600160008573ffffffffffffffffffffffffffffffffffffffff1673ffffffffffffffffffffffffffffffffffffffff168152602001908152602001600020546101d69190610810565b90506101fa604051806060016040528060238152602001610a876023913982610583565b60004282111590506102426040518060400160405280601e81526020017f426c6f636b2074696d657374616d703a20256f2c20706c7573353a20256f0000815250428461061f565b8015610424576102866040518060400160405280601281526020017f53686f756c642072657475726e207472756500000000000000000000000000008152506104ea565b6000808573ffffffffffffffffffffffffffffffffffffffff1673ffffffffffffffffffffffffffffffffffffffff16815260200190815260200160002060008154809291906102d590610844565b919050555042600160008673ffffffffffffffffffffffffffffffffffffffff1673ffffffffffffffffffffffffffffffffffffffff1681526020019081526020016000208190555061039b6040518060400160405280601781526020017f6e65772063757063616b652062616c616e63653a20256f0000000000000000008152506000808773ffffffffffffffffffffffffffffffffffffffff1673ffffffffffffffffffffffffffffffffffffffff16815260200190815260200160002054610583565b6104196040518060400160405280601181526020017f6e65772074696d657374616d703a20256f000000000000000000000000000000815250600160008773ffffffffffffffffffffffffffffffffffffffff1673ffffffffffffffffffffffffffffffffffffffff16815260200190815260200160002054610583565b60019250505061049d565b6104626040518060400160405280600a81526020017f726576657274696e6721000000000000000000000000000000000000000000008152506104ea565b6040517f08c379a000000000000000000000000000000000000000000000000000000000815260040161049490610935565b60405180910390fd5b919050565b60008060008373ffffffffffffffffffffffffffffffffffffffff1673ffffffffffffffffffffffffffffffffffffffff168152602001908152602001600020549050919050565b610580816040516024016104fe91906109d4565b6040516020818303038152906040527f41304fac000000000000000000000000000000000000000000000000000000007bffffffffffffffffffffffffffffffffffffffffffffffffffffffff19166020820180517bffffffffffffffffffffffffffffffffffffffffffffffffffffffff83818316178352505050506106be565b50565b61061b82826040516024016105999291906109f6565b6040516020818303038152906040527fb60e72cc000000000000000000000000000000000000000000000000000000007bffffffffffffffffffffffffffffffffffffffffffffffffffffffff19166020820180517bffffffffffffffffffffffffffffffffffffffffffffffffffffffff83818316178352505050506106be565b5050565b6106b983838360405160240161063793929190610a26565b6040516020818303038152906040527fca47c4eb000000000000000000000000000000000000000000000000000000007bffffffffffffffffffffffffffffffffffffffffffffffffffffffff19166020820180517bffffffffffffffffffffffffffffffffffffffffffffffffffffffff83818316178352505050506106be565b505050565b60008151905060006a636f6e736f6c652e6c6f679050602083016000808483855afa5050505050565b600080fd5b600073ffffffffffffffffffffffffffffffffffffffff82169050919050565b6000610717826106ec565b9050919050565b6107278161070c565b811461073257600080fd5b50565b6000813590506107448161071e565b92915050565b6000602082840312156107605761075f6106e7565b5b600061076e84828501610735565b91505092915050565b60008115159050919050565b61078c81610777565b82525050565b60006020820190506107a76000830184610783565b92915050565b6000819050919050565b6107c0816107ad565b82525050565b60006020820190506107db60008301846107b7565b92915050565b7f4e487b7100000000000000000000000000000000000000000000000000000000600052601160045260246000fd5b600061081b826107ad565b9150610826836107ad565b925082820190508082111561083e5761083d6107e1565b5b92915050565b600061084f826107ad565b91507fffffffffffffffffffffffffffffffffffffffffffffffffffffffffffffffff8203610881576108806107e1565b5b600182019050919050565b600082825260208201905092915050565b7f48545450203432393a20546f6f204d616e792043757063616b65732028796f7560008201527f206d7573742077616974206174206c656173742035207365636f6e647320626560208201527f747765656e2063757063616b6573290000000000000000000000000000000000604082015250565b600061091f604f8361088c565b915061092a8261089d565b606082019050919050565b6000602082019050818103600083015261094e81610912565b9050919050565b600081519050919050565b60005b8381101561097e578082015181840152602081019050610963565b60008484015250505050565b6000601f19601f8301169050919050565b60006109a682610955565b6109b0818561088c565b93506109c0818560208601610960565b6109c98161098a565b840191505092915050565b600060208201905081810360008301526109ee818461099b565b905092915050565b60006040820190508181036000830152610a10818561099b565b9050610a1f60208301846107b7565b9392505050565b60006060820190508181036000830152610a40818661099b565b9050610a4f60208301856107b7565b610a5c60408301846107b7565b94935050505056fe73657474696e672074686520646973747269627574696f6e2074696d6520746f2030666976655365636f6e647346726f6d4c617374446973747269627574696f6e3a20256fa2646970667358221220491d3e6655bec52a3ebf7540233c91fc654aaa998df51ffbe67bfd0a7254974e64736f6c63430008120033",
  "linkReferences": {},
  "deployedLinkReferences": {}
}