{
  "_format": "hh-sol-artifact-1",
  "contractName": "VendingMachine",
  "sourceName": "contracts/VendingMachine.sol",
  "abi": [
    {
      "inputs": [
        {
          "internalType": "address",
          "name": "userAddress",
          "type": "address"
        }
      ],
      "name": "getCupcakeBalanceFor",
      "outputs": [
        {
          "internalType": "uint256",
          "name": "",
          "type": "uint256"
        }
      ],
      "stateMutability": "view",
      "type": "function"
    },
    {
      "inputs": [
        {
          "internalType": "address",
          "name": "userAddress",
          "type": "address"
        }
      ],
      "name": "giveCupcakeTo",
      "outputs": [
        {
          "internalType": "bool",
          "name": "",
          "type": "bool"
        }
      ],
      "stateMutability": "nonpayable",
      "type": "function"
    }
  ],
  "bytecode": "0x608060405234801561001057600080fd5b50610813806100206000396000f3fe608060405234801561001057600080fd5b50600436106100365760003560e01c80636c5283491461003b578063987133171461006b575b600080fd5b610055600480360381019061005091906104f3565b61009b565b604051610062919061053b565b60405180910390f35b610085600480360381019061008091906104f3565b6102e7565b604051610092919061056f565b60405180910390f35b6000806000808473ffffffffffffffffffffffffffffffffffffffff1673ffffffffffffffffffffffffffffffffffffffff1681526020019081526020016000205403610128576000600160008473ffffffffffffffffffffffffffffffffffffffff1673ffffffffffffffffffffffffffffffffffffffff168152602001908152602001600020819055505b60006005600160008573ffffffffffffffffffffffffffffffffffffffff1673ffffffffffffffffffffffffffffffffffffffff1681526020019081526020016000205461017691906105b9565b905060004282111590506101c06040518060400160405280601e81526020017f426c6f636b2074696d657374616d703a20256f2c20706c7573353a20256f0000815250428461032f565b80156102a7576102046040518060400160405280601281526020017f53686f756c642072657475726e207472756500000000000000000000000000008152506103ce565b6000808573ffffffffffffffffffffffffffffffffffffffff1673ffffffffffffffffffffffffffffffffffffffff1681526020019081526020016000206000815480929190610253906105ed565b919050555042600160008673ffffffffffffffffffffffffffffffffffffffff1673ffffffffffffffffffffffffffffffffffffffff168152602001908152602001600020819055506001925050506102e2565b6040517f08c379a00000000000000000000000000000000000000000000000000000000081526004016102d9906106de565b60405180910390fd5b919050565b60008060008373ffffffffffffffffffffffffffffffffffffffff1673ffffffffffffffffffffffffffffffffffffffff168152602001908152602001600020549050919050565b6103c98383836040516024016103479392919061077d565b6040516020818303038152906040527fca47c4eb000000000000000000000000000000000000000000000000000000007bffffffffffffffffffffffffffffffffffffffffffffffffffffffff19166020820180517bffffffffffffffffffffffffffffffffffffffffffffffffffffffff8381831617835250505050610467565b505050565b610464816040516024016103e291906107bb565b6040516020818303038152906040527f41304fac000000000000000000000000000000000000000000000000000000007bffffffffffffffffffffffffffffffffffffffffffffffffffffffff19166020820180517bffffffffffffffffffffffffffffffffffffffffffffffffffffffff8381831617835250505050610467565b50565b60008151905060006a636f6e736f6c652e6c6f679050602083016000808483855afa5050505050565b600080fd5b600073ffffffffffffffffffffffffffffffffffffffff82169050919050565b60006104c082610495565b9050919050565b6104d0816104b5565b81146104db57600080fd5b50565b6000813590506104ed816104c7565b92915050565b60006020828403121561050957610508610490565b5b6000610517848285016104de565b91505092915050565b60008115159050919050565b61053581610520565b82525050565b6000602082019050610550600083018461052c565b92915050565b6000819050919050565b61056981610556565b82525050565b60006020820190506105846000830184610560565b92915050565b7f4e487b7100000000000000000000000000000000000000000000000000000000600052601160045260246000fd5b60006105c482610556565b91506105cf83610556565b92508282019050808211156105e7576105e661058a565b5b92915050565b60006105f882610556565b91507fffffffffffffffffffffffffffffffffffffffffffffffffffffffffffffffff820361062a5761062961058a565b5b600182019050919050565b600082825260208201905092915050565b7f48545450203432393a20546f6f204d616e792043757063616b65732028796f7560008201527f206d7573742077616974206174206c656173742035207365636f6e647320626560208201527f747765656e2063757063616b6573290000000000000000000000000000000000604082015250565b60006106c8604f83610635565b91506106d382610646565b606082019050919050565b600060208201905081810360008301526106f7816106bb565b9050919050565b600081519050919050565b60005b8381101561072757808201518184015260208101905061070c565b60008484015250505050565b6000601f19601f8301169050919050565b600061074f826106fe565b6107598185610635565b9350610769818560208601610709565b61077281610733565b840191505092915050565b600060608201905081810360008301526107978186610744565b90506107a66020830185610560565b6107b36040830184610560565b949350505050565b600060208201905081810360008301526107d58184610744565b90509291505056fea264697066735822122007d64309fa08a180ce3368a4d3b153f56601bf30a857ea6cd638bb9b73c02f0364736f6c63430008120033",
  "linkReferences": {},
  "deployedLinkReferences": {}
}